{
  "contractName": "EventRegistration",
  "abi": [
    {
      "constant": false,
      "inputs": [
        {
          "internalType": "string",
          "name": "_firstName",
          "type": "string"
        },
        {
          "internalType": "string",
          "name": "_lastName",
          "type": "string"
        },
        {
          "internalType": "string",
          "name": "_email",
          "type": "string"
        },
        {
          "internalType": "enum EventRegistration.TicketType",
          "name": "_ticketType",
          "type": "uint8"
        }
      ],
      "name": "register",
      "outputs": [],
      "payable": false,
      "stateMutability": "nonpayable",
      "type": "function"
    },
    {
      "constant": true,
      "inputs": [],
      "name": "getAttendeeInfo",
      "outputs": [
        {
          "internalType": "string",
          "name": "firstName",
          "type": "string"
        },
        {
          "internalType": "string",
          "name": "lastName",
          "type": "string"
        },
        {
          "internalType": "string",
          "name": "email",
          "type": "string"
        },
        {
          "internalType": "string",
          "name": "ticketType",
          "type": "string"
        }
      ],
      "payable": false,
      "stateMutability": "view",
      "type": "function"
    }
  ],
  "bytecode": "0x608060405234801561001057600080fd5b50610a4c806100206000396000f3fe608060405234801561001057600080fd5b50600436106100365760003560e01c8063796ed3391461003b5780637bd8a878146101f6575b600080fd5b6101f46004803603608081101561005157600080fd5b81019060208101813564010000000081111561006c57600080fd5b82018360208201111561007e57600080fd5b803590602001918460018302840111640100000000831117156100a057600080fd5b91908080601f01602080910402602001604051908101604052809392919081815260200183838082843760009201919091525092959493602081019350359150506401000000008111156100f357600080fd5b82018360208201111561010557600080fd5b8035906020019184600183028401116401000000008311171561012757600080fd5b91908080601f016020809104026020016040519081016040528093929190818152602001838380828437600092019190915250929594936020810193503591505064010000000081111561017a57600080fd5b82018360208201111561018c57600080fd5b803590602001918460018302840111640100000000831117156101ae57600080fd5b91908080601f0160208091040260200160405190810160405280939291908181526020018383808284376000920191909152509295505050903560ff1691506103a89050565b005b6101fe61054c565b6040518080602001806020018060200180602001858103855289818151815260200191508051906020019080838360005b8381101561024757818101518382015260200161022f565b50505050905090810190601f1680156102745780820380516001836020036101000a031916815260200191505b5085810384528851815288516020918201918a019080838360005b838110156102a757818101518382015260200161028f565b50505050905090810190601f1680156102d45780820380516001836020036101000a031916815260200191505b50858103835287518152875160209182019189019080838360005b838110156103075781810151838201526020016102ef565b50505050905090810190601f1680156103345780820380516001836020036101000a031916815260200191505b50858103825286518152865160209182019188019080838360005b8381101561036757818101518382015260200161034f565b50505050905090810190601f1680156103945780820380516001836020036101000a031916815260200191505b509850505050505050505060405180910390f35b60008451116103f7576040805162461bcd60e51b8152602060048201526016602482015275119a5c9cdd081b985b59481a5cc81c995c5d5a5c995960521b604482015290519081900360640190fd5b6000835111610445576040805162461bcd60e51b815260206004820152601560248201527413185cdd081b985b59481a5cc81c995c5d5a5c9959605a1b604482015290519081900360640190fd5b600082511161048f576040805162461bcd60e51b8152602060048201526011602482015270115b585a5b081a5cc81c995c5d5a5c9959607a1b604482015290519081900360640190fd5b61049761094a565b60405180608001604052808681526020018581526020018481526020018360018111156104c057fe5b90523360009081526020818152604090912082518051939450849391926104ec9284929091019061097c565b506020828101518051610505926001850192019061097c565b506040820151805161052191600284019160209091019061097c565b50606082015160038201805460ff19166001838181111561053e57fe5b021790555050505050505050565b33600090815260208190526040812060038101546060928392839283929060ff16600181111561057857fe5b141561076557805460408051602060026001808616156101000260001901909516819004601f81018390048302840183019094528383528594850193908501929185919083018282801561060d5780601f106105e25761010080835404028352916020019161060d565b820191906000526020600020905b8154815290600101906020018083116105f057829003601f168201915b5050855460408051602060026001851615610100026000190190941693909304601f81018490048402820184019092528181529598508794509250840190508282801561069b5780601f106106705761010080835404028352916020019161069b565b820191906000526020600020905b81548152906001019060200180831161067e57829003601f168201915b5050845460408051602060026001851615610100026000190190941693909304601f8101849004840282018401909252818152959750869450925084019050828280156107295780601f106106fe57610100808354040283529160200191610729565b820191906000526020600020905b81548152906001019060200180831161070c57829003601f168201915b505050505090506040518060400160405280600e81526020016d149959dd5b185c88151a58dad95d60921b815250945094509450945050610944565b805460408051602060026001808616156101000260001901909516819004601f8101839004830284018301909452838352859485019390850192918591908301828280156107f45780601f106107c9576101008083540402835291602001916107f4565b820191906000526020600020905b8154815290600101906020018083116107d757829003601f168201915b5050855460408051602060026001851615610100026000190190941693909304601f8101849004840282018401909252818152959850879450925084019050828280156108825780601f1061085757610100808354040283529160200191610882565b820191906000526020600020905b81548152906001019060200180831161086557829003601f168201915b5050845460408051602060026001851615610100026000190190941693909304601f8101849004840282018401909252818152959750869450925084019050828280156109105780601f106108e557610100808354040283529160200191610910565b820191906000526020600020905b8154815290600101906020018083116108f357829003601f168201915b505050505090506040518060400160405280600a81526020016915925408151a58dad95d60b21b8152509450945094509450505b90919293565b60405180608001604052806060815260200160608152602001606081526020016000600181111561097757fe5b905290565b828054600181600116156101000203166002900490600052602060002090601f016020900481019282601f106109bd57805160ff19168380011785556109ea565b828001600101855582156109ea579182015b828111156109ea5782518255916020019190600101906109cf565b506109f69291506109fa565b5090565b610a1491905b808211156109f65760008155600101610a00565b9056fea265627a7a723158207a9fc3b531095e4290dff85b49b6c0bd1d0787d8300e53b4134a0355e907285f64736f6c63430005100032",
  "source": "//SPDX-License-Identifier: MIT\r\npragma solidity >= 0.5.0 < 0.9.0;\r\n\r\ncontract EventRegistration {\r\n\r\n    enum TicketType { Regular, VIP }\r\n\r\n    struct Attendee {\r\n        string firstName;\r\n        string lastName;\r\n        string email;\r\n        TicketType ticketType;\r\n    }\r\n\r\n    mapping(address => Attendee) attendees;\r\n\r\n    //Register user information\r\n    function register(\r\n        string memory _firstName,\r\n        string memory _lastName,\r\n        string memory _email,\r\n        TicketType _ticketType\r\n        ) public {\r\n\r\n            //Check that fields are filled out\r\n            require(bytes(_firstName).length > 0, \"First name is required\");\r\n            require(bytes(_lastName).length > 0, \"Last name is required\");\r\n            require(bytes(_email).length > 0, \"Email is required\");\r\n//add better email checker with @ symbol and \".com\" at end\r\n//front-end will have radial button for Regular or VIP\r\n//add security check to select radial button on front-end\r\n\r\n            //Create new Attendee\r\n            Attendee memory newAttendee = Attendee({\r\n                firstName: _firstName,\r\n                lastName: _lastName,\r\n                email: _email,\r\n                ticketType: _ticketType\r\n            }); \r\n\r\n        //Map sender address with Attendee information\r\n        attendees[msg.sender] = newAttendee;\r\n    }\r\n\r\n    function getAttendeeInfo() public view returns(\r\n        string memory firstName,\r\n        string memory lastName,\r\n        string memory email,\r\n        string memory ticketType\r\n    ) {\r\n        Attendee storage currentAttendee = attendees[msg.sender];\r\n\r\n        if(attendees[msg.sender].ticketType == TicketType.Regular) {\r\n            return (\r\n            currentAttendee.firstName,\r\n            currentAttendee.lastName,\r\n            currentAttendee.email,\r\n            \"Regular Ticket\");\r\n        } else {\r\n            return(\r\n            currentAttendee.firstName,\r\n            currentAttendee.lastName,\r\n            currentAttendee.email,\r\n            \"VIP Ticket\");\r\n        }\r\n    }\r\n}",
  "sourcePath": "C:\\Users\\Gessay\\desktop\\erd2\\contracts\\EventRegistration.sol",
  "compiler": {
    "name": "solc",
    "version": "0.5.16+commit.9c3226ce.Emscripten.clang"
  },
  "schemaVersion": "3.4.16",
  "updatedAt": "2023-11-04T14:17:34.959Z",
  "networkType": "ethereum",
  "devdoc": {
    "methods": {}
  },
  "userdoc": {
    "methods": {}
  }
}